:10000000C8240020B51700001D1800001D180000AE
:100010001D1800001D1800001D1800000000000041
:100020000000000000000000000000001D1800009B
:100030001D180000000000001D1800001D18000021
:100040001D1800001D1800001D1800001D180000DC
:100050001D1800001D1800001D1800001D180000CC
:100060001D1800001D1800001D1800001D180000BC
:100070001D1800001D1800001D1800001D180000AC
:100080001D1800001D1800001D1800001D1800009C
:100090001D1800001D1800001D1800001D1800008C
:1000A0001D1800001D1800001D1800001D1800007C
:1000B0001D1800001D1800001D1800001D1800006C
:1000C0001D1800001D1800001D1800001D1800005C
:1000D0001D1800001D1800001D1800001D1800004C
:1000E0001D1800001D180000000000001D18000071
:1000F0001D1800001D1800001D1800001D1800002C
:100100001D1800001D1800001D1800001D1800001B
:1001100000000000000000001D1800001D18000075
:100120001D1800001D1800001D1800001D180000FB
:100130001D1800001D1800001D1800001D180000EB
:1001400000000000000000000000000000000000AF
:100150001D1800001D1800001D1800001D180000CB
:10016000000000000000000000000000000000008F
:10017000000000000000000000000000000000007F
:10018000000000000000000000000000000000006F
:10019000000000000000000000000000000000005F
:1001A000000000000000000000000000000000004F
:1001B0001D1800001D1800001D1800001D1800006B
:1001C0001D1800001D1800001D1800001D1800005B
:1001D0001D1800001D1800001D1800001D1800004B
:1001E0001D1800001D1800001D1800001D1800003B
:1001F0001D1800001D1800001D1800001D1800002B
:100200001D1800001D1800001D180000000000004F
:100210001D1800001D1800001D1800001D1800000A
:100220001D1800001D1800001D1800001D180000FA
:100230001D1800001D1800001D1800001D180000EA
:100240001D1800001D1800001D1800001D180000DA
:100250001D1800001D1800001D1800001D180000CA
:100260001D1800001D1800001D18000080B582B088
:1002700000AF7860054B1B687A6802FB03F31846F1
:1002800000F064FE0837BD4680BD00BF8C0400202E
:1002900080B582B000AF7860054B1B687A6802FBBE
:1002A00003F3184600F052FE0837BD4680BD00BF7C
:1002B0008804002080B500AF00F004F800F024F8B6
:1002C00080BD00BF80B500AF0A4800F043FE00F0DB
:1002D0003BFF0246084BA3FB02239B09074A13601E
:1002E000064B1B68064AA2FB03239B09054A1360C1
:1002F00080BD00BF40054002F11976058C04002046
:10030000D34D62108804002080B500AF134800F080
:10031000F7FD0A2000F01AFE1148E02101F0B0F9C3
:100320000F48202101220A2301F04CF80C484021FB
:1003300001220A2301F046F80948802101220A23FC
:1003400001F040F8074800F0DBFD0A2000F0FEFD58
:100350000548072101F0AAF980BD00BF020800F09E
:1003600000600040040800F00040024080B500AF8B
:100370000E4800F0C5FD0E4800F0C2FD4FF003101E
:1003800001F0D6F90B4801F0D3F90B48012101F037
:10039000B9F90948022101F09FF900F0D5FE0346A2
:1003A00006481946002200F04DF880BD032000F0F9
:1003B000030800F003040300007000400030024016
:1003C00080B582B000AF78600B46FB707B68DBB213
:1003D0001B481946002200F093F8FB78184819468C
:1003E00000F0C6F81648032100F0B2F84FF4FA7096
:1003F00000F0ACFD00BF124800F096F80346002B59
:10040000F9D17B68DBB20E481946012200F078F87A
:100410000B48072100F09CF84FF4FA7000F096FDAD
:1004200000BF074800F080F80346002BF9D10448CC
:1004300000F0AEF8034618460837BD4680BD00BF41
:100440000030024080B586B000AFF860B960134656
:10045000FB71F86800F042F8FB79002B02D01B4BCF
:100460007B6101E01A4B7B617A6913469B00134460
:100470009B001A46BB681344591E7A6913469B00B9
:1004800013449B00B1FBF3F3013B3B61FB680C336E
:100490001A463B691360FB6803F57C631B6803F035
:1004A0000103002B0FD0BA680A4B13440A4AA2FB7F
:1004B0000323DB0D013B3B61FB680C331A463B69B0
:1004C00043F0800313601837BD4680BD801A0600D4
:1004D000A08601007F4737017DD0446980B483B096
:1004E00000AF78607B6820331A467B6820331B6836
:1004F00043F0100313600C37BD465DF8047B704772
:1005000080B483B000AF78600B46FB701346BB70BD
:100510007B68FA785100BA780A431A600C37BD46F6
:100520005DF8047B704700BF80B483B000AF786093
:100530007B6804331B6803F00103002B01D0012307
:1005400000E0002318460C37BD465DF8047B704779
:1005500080B483B000AF786039607B6804331A469A
:100560003B6813600C37BD465DF8047B704700BFE5
:1005700080B483B000AF78600B46FB707B680833B3
:100580001A46FB7813600C37BD465DF8047B704754
:1005900080B483B000AF78607B6808331B6818466E
:1005A0000C37BD465DF8047B704700BF90B591B035
:1005B00000AFF860C7E90023D7E9000101F0C0F9F6
:1005C0000346002B04D1FB68B04A10681860A6E10E
:1005D000D7E9000101F0B4F90346012B04D1FB680F
:1005E000AB4A106818609AE1D7E900014FF00002A9
:1005F0004FF0000303F0A0F90346002B06D0FB6880
:10060000A4491A460B461B88138088E1FB687B636C
:1006100001231C46D7E900014FF000024FF0000310
:1006200003F094F90346002B01D100231C46E3B2EA
:10063000BB62BB6A002B05D03B683B607B6883F0E4
:1006400000437B60D7E9000101F0A6F902460B46A2
:100650001046194603F0A2F90346FB63FB6B0D2B12
:1006600009DCBB6A002B02D0FB6B082B03DCFB6BA5
:1006700013F1080F01DA012300E000237B62BB6A5B
:10068000002B04D07B6B5A1C7A632D221A707B6A74
:10069000002B2ED0FB6B002B13DAF86B02F07EFEE2
:1006A00002460B46104619464FF000027A4B02F004
:1006B00027FD02460B461046194603F06FF9034624
:1006C000FB63F86B02F06AFE02460B464FF0000037
:1006D000724901F0DDF902460B46D7E9000102F04C
:1006E000EDFF02460B46C7E90023FB6BBB6300230B
:1006F000FB63F86B02F052FE02460B4610461946A9
:100700004FF00002644B03F021F90346002B01D0A7
:100710000023FB6364E0F86B02F040FE02460B46E8
:100720004FF000005D4901F0B3F9C7E90601D7E9D0
:1007300006014FF000024FF0000303F025F90346D5
:10074000002B37D0D7E9060101F0FAF80346012B58
:1007500030D0D7E90001D7E9062302F0AFFF024607
:100760000B461046194601F05FF802460B4610464C
:10077000194603F013F903467B61786902F00EFE17
:1007800002460B4610461946D7E9062302F06CFED6
:1007900002460B46D7E9000102F0B2FC02460B46C6
:1007A000C7E900237B6B5A1C7A637A69D2B2303274
:1007B000D2B21A70FB6B002B0FD1D7E900014FF0BA
:1007C00000024FF0000303F0DFF80346002B04D0D3
:1007D0007B6B5A1C7A632E221A70FB6B013BFB6306
:1007E0002F4BD3E90023D7E9000103F0CDF80346EE
:1007F000002B90D1FB6B002B8DDA7B6A002B00F075
:100800008B807B6B5A1C7A6365221A70BB6B002B42
:1008100005DD7B6B5A1C7A632B221A7007E07B6B19
:100820005A1C7A632D221A70BB6B5B42BB63002398
:10083000FB631DE0786B431C7B63BA6B194B83FB36
:1008400002139910D317C91A0B469B000B445B0087
:10085000D11ACBB23033DBB20370BB6B114A82FBCF
:1008600003129210DB17D31ABB63FB6B0133FB63DC
:10087000BB6B002BDEDCFB6B5B427A6B13447B6350
:1008800000233B63FB6B013BFB623DE0F83900005A
:10089000FC390000003A00000000F03F0000244056
:1008A00010000020676666663B6B7A6B13443A6BF8
:1008B000796B0A441178FA6A786B024412784A40DC
:1008C000D2B21A70FB6A7A6B1344FA6A796B0A44E3
:1008D00011783A6B786B024412784A40D2B21A709F
:1008E0003B6B7A6B13443A6B796B0A441178FA6A62
:1008F000786B024412784A40D2B21A703B6B0133D3
:100900003B63FB6A013BFB623A6BFB6A9A42CBDBBF
:10091000FB6B7A6B13447B637B6B00221A70FB6862
:1009200018464437BD4690BDB0B582B000AFFFF762
:10093000C1FCFFF71BFDAE4829210022FFF7E0FDB7
:10094000AB488121FFF714FEA9481121FFF710FEE3
:10095000A7480321FFF7FCFD00BFA548FFF7E4FD12
:10096000034683F00103DBB2002BF6D100BFA048A1
:10097000FFF7DAFD0346002BF9D16E20FFF788FC64
:1009800029208C21FFF71CFD02469A4B1A60292072
:100990008D21FFF715FD0246974B1A60964B1B6899
:1009A0001A02944B1B681344944A136029208E2129
:1009B000FFF706FD02468F4B1A6029208F21FFF7B3
:1009C000FFFC02468C4B1A608B4B1B681A02894B4A
:1009D0001B6813448A4A1360854829210022FFF7C7
:1009E0008FFD83488121FFF7C3FD81480021FFF778
:1009F000BFFD7F480321FFF7ABFD00BF7C48FFF739
:100A000093FD034683F00103DBB2002BF6D100BF58
:100A10007748FFF789FD0346002BF9D1784B1A6818
:100A2000764B1B68B2FBF3F3184602F0A7FC0246B4
:100A30000B46104619464FF000024FF07F5302F06C
:100A400085FF0346002B2FD06C4B1B68184602F025
:100A500095FC02460B461046194659A3D3E90023DC
:100A600002F002FD02460B4614461D46644B1A680E
:100A7000624B1B68B2FBF3F3184602F07FFC0246A0
:100A80000B461046194650A3D3E9002302F0ECFCB4
:100A900002460B462046294602F032FB02460B4630
:100AA0005849C1E90023C2E1554B1A68534B1B68F2
:100AB000B2FBF3F3184602F061FC02460B46104607
:100AC00019464FF00002504B02F040FF0346002B46
:100AD0002FD04A4B1B68184602F050FC02460B46CA
:100AE000104619463AA3D3E9002302F0BDFC0246A2
:100AF0000B4614461D46424B1A68404B1B68B2FB1E
:100B0000F3F3184602F03AFC02460B46104619462B
:100B100031A3D3E9002302F0A7FC02460B4620468E
:100B2000294602F0EDFA02460B463649C1E9002398
:100B30007DE1334B1A68314B1B68B2FBF3F3184667
:100B400002F01CFC02460B46104619464FF000020C
:100B50002E4B02F0FBFE0346002B59D0274B1B689F
:100B6000184602F00BFC02460B46104619461CA321
:100B7000D3E9002302F078FC02460B4614461D46DA
:100B80001F4B1A681D4B1B68B2FBF3F3184602F0AB
:100B9000F5FB02460B461046194613A3D3E9002382
:100BA00002F062FC02460B462046294602F0A8FAF3
:100BB00002460B461349C1E9002338E1AFF3008038
:100BC000C58F31772D219F3F5F07CE1951DA9B3FAB
:100BD000A4703D0AD7A3A03FBA490C022B87A63FB9
:100BE000105839B4C876D63F5F07CE1951DAAB3FFB
:100BF00000300240740400207004002078040020BB
:100C00007C040020800400200000D03F0000D83F7A
:100C1000B34B1A68B34B1B68B2FBF3F3184602F0F0
:100C2000ADFB02460B46104619464FF00002AE4B94
:100C300002F08CFE0346002B2FD0AA4B1B681846EF
:100C400002F09CFB02460B46104619468CA3D3E9E2
:100C5000002302F009FC02460B4614461D46A04B39
:100C60001A68A04B1B68B2FBF3F3184602F086FB30
:100C700002460B461046194683A3D3E9002302F02F
:100C8000F3FB02460B462046294602F039FA02469B
:100C90000B469649C1E90023C9E0914B1A68914B74
:100CA0001B68B2FBF3F3184602F068FB02460B46E2
:100CB0001046194676A3D3E9002302F047FE034607
:100CC000002B2BD0874B1B68184602F057FB0246BF
:100CD0000B461046194670A3D3E9002302F0C4FB6B
:100CE00002460B4614461D467D4B1B68184602F013
:100CF00045FB02460B461046194669A3D3E900237B
:100D000002F0B2FB02460B462046294602F0F8F9F3
:100D100002460B467549C1E9002388E0704B1A680A
:100D2000704B1B68B2FBF3F3184602F027FB024638
:100D30000B46104619465CA3D3E9002302F006FED9
:100D40000346002B2BD0674B1B68184602F016FB9E
:100D500002460B461046194655A3D3E9002302F07C
:100D600083FB02460B4614461D465D4B1B68184626
:100D700002F004FB02460B46104619464EA3D3E987
:100D8000002302F071FB02460B462046294602F082
:100D9000B7F902460B465549C1E9002347E0504BDD
:100DA0001A68504B1B68B2FBF3F3184602F0E6FAE0
:100DB00002460B461046194641A3D3E9002302F030
:100DC000CFFD0346002B2BD0464B1B68184602F084
:100DD000D5FA02460B46104619463BA3D3E9002339
:100DE00002F042FB02460B4614461D463C4B1B6874
:100DF000184602F0C3FA02460B461046194634A3C1
:100E0000D3E9002302F030FB02460B462046294678
:100E100002F076F902460B463449C1E9002306E0A8
:100E200032494FF000024FF00003C1E900232F4B7D
:100E3000D3E90023104619464FF000022C4B02F074
:100E400013FB02460B462949C1E900230120FFF7A5
:100E50000DFA21A3D3E90023C7E90023254BD3E9E9
:100E600000232548FFF7A2FB204BD3E900232348AA
:100E7000FFF79CFB4FF4FA70FFF7F8F95BE500BF52
:100E80001E166A4DF38EA33FDE718A8EE4F2AF3FE9
:100E900085EB51B81E85E33FC7BAB88D06F0963F83
:100EA0005839B4C876BE9F3F9A9999999999E93F64
:100EB0002D431CEBE2368A3F4BC8073D9B558F3FC5
:100EC000CDCCCCCCCCCCF43FB2632310AFEB573FAE
:100ED000D2FBC6D79E59523FCDCCCCCCCCAC4B40EC
:100EE0007C040020780400200000E03F8004002003
:100EF0000000304068040020B80400209004002066
:100F000080B483B000AF78607B6803F47F431A0A33
:100F10000D4B134403F070427B6803F47F43190ABE
:100F2000094B0B44C3F313035B011A437B68DBB229
:100F30009B00134343F000731A46012313600C37E0
:100F4000BD465DF8047B704700E60F4001387FF432
:100F5000FDAF704780B586B000AF7860724B1B68FC
:100F60003B61724B1B68FB603B6943F400633B6170
:100F70003B6923F480033B61FB6843F40063FB603F
:100F8000694A3B691360694AFB6813603B6903F077
:100F90000103002B26D07B6803F00103002B21D135
:100FA0007B6863F001033A6913403B61604B4FF487
:100FB00080721A605C4A3B6913604FF400237B61C6
:100FC00006E07B69013B7B617B69002B00D105E07A
:100FD000584B1B6803F48073002BF2D07B69002B05
:100FE00000D19EE03B6923F4FE633B617B6803F420
:100FF000FE633A6913433B61FB6823F0004323F02F
:101000007003FB607A684C4B1340FA681343FB6033
:101010007B6803F00803DB00FA681343FB60424A75
:101020003B691360414AFB6813603B6923F400533A
:101030003B617B6803F400533A6913433B61FB68EF
:1010400023F40053FB607B6803F40053FA681343F6
:10105000FB60374B40221A60FB68002B06DA334AEC
:10106000FB681360304A3B69136005E02E4A3B6918
:1010700013602E4AFB6813603B6923F0F86323F08A
:1010800001033B617A682D4B13403A6913433B617E
:10109000FB6823F0FC53FB607B6803F0FC53FA68A9
:1010A0001343FB607B6803F08043002B0ED03B6949
:1010B00043F480033B61FB6823F48003FB607A68A0
:1010C0001F4B1340FA681343FB6003E0FB6823F0F7
:1010D0008043FB607B6803F40063002B18D14FF45E
:1010E00000437B6109E0174B1B6803F00103002BF1
:1010F00000D005E07B69013B7B617B69002BF2D16D
:101100003B6923F400633B61FB6823F40063FB60ED
:10111000054A3B691360054AFB6813601020FFF71E
:1011200015FF1837BD4680BD60E00F4070E00F40EE
:1011300058E00F4050E00F40300000800100C00731
:101140000000404068E10F4080B487B000AF714BB1
:101150001B687B61704B1B68BB60BB68002B03DAAC
:10116000BB6803F0700302E07B6903F03003202BBF
:1011700017D0202B04D8002B07D0102B0ED01BE04B
:10118000302B11D0702B13D016E07B6903F4F86379
:101190009B09624A52F823303B610FE0604B3B6190
:1011A0000CE0604B3B6109E047F230533B6105E0E6
:1011B0004FF400433B6101E00023A5E04FF0FF3313
:1011C000FB60BB68002B04DABB6803F40063002BF0
:1011D00007D0BB68002B55DB7B6903F40063002B51
:1011E00050D1514B1B687B60504B1B683B603B6888
:1011F00003F4F8531B0A01333A6802F01F0201326C
:1012000002FB03F35B003A69B2FBF3F33B617B68DB
:10121000C3F309033A6902FB03F27968444B0B40BC
:101220009B0A396901FB03F39B0A13443B617B6909
:1012300043F480037B613F4B1B6803F47043B3F5B9
:10124000804F16D0B3F5804F06D8B3F5005F0AD0B3
:10125000B3F5405F0AD015E0B3F5E04F0CD0B3F51D
:10126000104F0CD00EE0344BFB600BE0334BFB60B7
:1012700008E0334BFB6005E0324BFB6002E0324B91
:10128000FB6000BF7B6903F48003002B35D0BB6893
:10129000002B29DABB6803F08043002B1AD0BB680F
:1012A000002B04DABB6803F40063002B07D0BB6893
:1012B000002B0FDB7B6903F40063002B0AD13B6931
:1012C0005A00BB6803F0FE539B0D0133B2FBF3F3EE
:1012D0003B6112E0BB6803F0FC53DB0D01333A695C
:1012E000B2FBF3F33B6108E07B6903F0F063DB0DD5
:1012F00001333A69B2FBF3F33B61FA683B699A4206
:1013000001D2FB683B613B6918461C37BD465DF85E
:10131000047B704760E00F4070E00F40043A00002B
:101320000024F40000093D0060E10F4064E10F403B
:1013300000FC0F0010E00F4000B4C40480F0FA027B
:10134000005A620240787D01002D310180B485B0E1
:1013500000AFF8600B467A60FB72FB6803F58063B0
:1013600019467B6803F00103002B06D0FB6803F5E8
:1013700080631A68FB7A134306E0FB6803F5806319
:101380001B68FA7AD24313400B60FB6803F5846351
:1013900019467B6803F00203002B06D0FB6803F5B7
:1013A00084631A68FB7A134306E0FB6803F58463E1
:1013B0001B68FA7AD24313400B601437BD465DF8C0
:1013C000047B704780B487B000AFF8607A603B6000
:1013D0000B46FB720023FB752CE0FA7AFB7D42FA88
:1013E00003F303F00103002B21D0FB6803F6C47361
:1013F0001846FB6803F6C4731B68FA7D520003218C
:1014000001FA02F2D24313400360FB6803F6C4738F
:101410001846FB6803F6C4731A687B685B0903F01F
:101420000301FB7D5B0001FA03F313430360FB7DC3
:101430000133FB75FB7D072BCFD9FB6803F5A06358
:1014400019467B6803F00103002B06D0FB6803F507
:10145000A0631A68FB7A134306E0FB6803F5A063F8
:101460001B68FA7AD24313400B60FB6803F2045303
:1014700019467B6803F00203002B06D0FB6803F2D9
:1014800004531A68FB7A134306E0FB6803F2045323
:101490001B68FA7AD24313400B60FB6803F5A16323
:1014A00019467B6803F00403002B06D0FB6803F5A4
:1014B000A1631A68FB7A134306E0FB6803F5A16396
:1014C0001B68FA7AD24313400B60FB6803F5A363F1
:1014D00019467B6803F00803002B06D0FB6803F570
:1014E000A3631A68FB7A134306E0FB6803F5A36362
:1014F0001B68FA7AD24313400B60FB6803F23C533B
:1015000019467B6803F01003002B06D0FB6803F23A
:101510003C531A68FB7A134306E0FB6803F23C5322
:101520001B68FA7AD24313400B60FB6803F20C533A
:1015300019463B6803F00103002B06D0FB6803F259
:101540000C531A68FB7A134306E0FB6803F20C5352
:101550001B68FA7AD24313400B60FB6803F5A26361
:1015600019463B6803F00203002B06D0FB6803F525
:10157000A2631A68FB7A134306E0FB6803F5A263D3
:101580001B68FA7AD24313400B60FB6803F21453D2
:1015900019463B6803F00403002B06D0FB6803F2F6
:1015A00014531A68FB7A134306E0FB6803F21453E2
:1015B0001B68FA7AD24313400B60FB6803F21C539A
:1015C00019463B6803F00803002B06D0FB6803F2C2
:1015D0001C531A68FB7A134306E0FB6803F21C53A2
:1015E0001B68FA7AD24313400B60FB6803F2445342
:1015F00019463B6803F40073002B06D0FB6803F226
:1016000044531A68FB7A134306E0FB6803F2445321
:101610001B68FA7AD24313400B60FB6803F5A8639A
:1016200019463B6803F44073002B06D0FB6803F5B2
:10163000A8631A68FB7A134306E0FB6803F5A86306
:101640001B68FA7AD24313400B60FB6803F5A5636D
:1016500019463B68002B06D1FB6803F5A5631A68A1
:10166000FB7A134306E0FB6803F5A5631B68FA7A6F
:10167000D24313400B601C37BD465DF8047B7047B6
:1016800080B582B000AF78600B46FB70FB7878685D
:1016900019460022FFF75AFEFB78786819460122A6
:1016A0000823FFF78FFE0837BD4680BD80B582B0A6
:1016B00000AF78600B46FB70FB7878681946012212
:1016C0000823FFF77FFEFB78786819460122FFF7B1
:1016D0003DFE0837BD4680BD80B582B000AF786062
:1016E0000B46FB70FB78786819460222FFF72EFE46
:1016F000FB787868194601220923FFF763FE083753
:10170000BD4680BD80B582B000AF78600B46FB70EF
:10171000FB78786819460222FFF718FEFB78786894
:10172000194601220823FFF74DFE0837BD4680BD4C
:1017300080B485B000AF78607B681B0CDBB2FB60C7
:101740001A4B1B68FA68012101FA02F21340002BC0
:1017500007D0FB685B000133154A52F82330FB6069
:1017600005E0FB685B00124A52F82330FB607B689F
:101770001B0ADBB2BB60FB6803F22C531846FB6804
:1017800003F22C531B68BA680F2101FA02F2D2430C
:101790001A407B6803F00F01BB6801FA03F313439F
:1017A00003601437BD465DF8047B70476CE00F4062
:1017B000503D000080B582B000AF124B7B60124BF1
:1017C0003B6007E03B681A1D3A607A68111D79603A
:1017D00012681A603B680D4A9342F3D30D480E49D4
:1017E0004FF000028842B8BF40F8042BFADB084AE9
:1017F000074B1B6843F470031360FFF795F8083735
:10180000BD4680BD343E000000000020540400208E
:1018100088ED00E058040020C404002080B400AF2C
:10182000FEE700BF000000002DE9F047C1F30A58B1
:10183000A8F2FF36132E0B460D4604460246894693
:1018400007461DDC002E40DBDFF8F08048FA06F882
:1018500008EA010E5EEA020217D035A3D3E900239D
:1018600001F050FC0022002302F08EF820B1002D80
:1018700040DB29EA0805002738462946BDE8F087FD
:10188000332E06DDB6F5806F2FD020461946BDE811
:10189000F087A8F213424FF0FF3A2AFA02FA1AEA46
:1018A000000FF2D022A3D3E9002301F02BFC002289
:1018B000002302F069F80028DED0002D1FDB4D4622
:1018C00027EA0A0738462946D8E719A3D3E90023AF
:1018D00001F018FC0022002302F056F80028CBD0BB
:1018E000002D1ADB00273D46C6E702460B4601F0F5
:1018F00009FCCCE74FF4801333419944B9E7142E27
:1019000008D0C8F5866808F10308012303FA08F334
:101910001F19D4D309F10109D1E725F00042064B84
:10192000224318BF1D460027A6E700BFAFF3008083
:101930009C7500883CE4377E0000F0BFFFFF0F007D
:1019400010B431F0004408D0114BA1F580129A4236
:1019500008D804205DF8044B704718B902205DF8E0
:10196000044B704701F1FF41094B01F5E001994239
:10197000EFD9B4F5801F01D20320EBE7054B9C4261
:1019800001D00020E6E7B0FA80F04009E2E700BFAE
:10199000FFFFDF7F0000F07F2DE9F041DFF8EC80F2
:1019A0008AB006460F4600F0EBF998F90030013393
:1019B00004460D460BD030463946FFF7C1FF30B123
:1019C000304639460022002301F0CAFF20B92046E4
:1019D00029460AB0BDE8F081284B98F800400193F1
:1019E0000023CDE90267CDE9046708933046394604
:1019F0008CB9234D4FF0604400220023CDE9064509
:101A000001F09AFF002831D101230093684601F0CC
:101A100069F888B90CE01B4F002600220023CDE9AD
:101A2000066701F089FF98B90123022C0093EDD1DC
:101A300001F0DCFF21230360134801F055F8CDE9E4
:101A40000601089BABB9DDE906010AB0BDE8F081EB
:101A500002239C42009304D0684601F043F800281A
:101A6000EFD101F0C3FF22230360EAE702230093D2
:101A7000F2E701F0BBFF089B0360E4E7E03D0000F4
:101A8000FFFFEFC70000F0FFE83D0000200000204E
:101A90002DE9F04FDFF8E0A28BB01F468046894663
:101AA000164600F0FDF99AF90030013304460D4660
:101AB00004D030463946FFF743FF20B92046294677
:101AC0000BB0BDE8F08F40464946FFF739FF83462B
:101AD00000282CD1304639460022002301F02CFF8B
:101AE0000028EBD09AF900309C4A9D4901920124CC
:101AF00000205A1CCDF820B0CDE90289CDE9046759
:101B00000094CDE906010DD0022B0BD0684600F001
:101B1000E9FF002800F09380089B1BB101F066FFED
:101B2000089B0360DDE906010BB0BDE8F08F0022E1
:101B300000234046494601F0FFFEF8B130463946E1
:101B40000022002301F0F8FE834600284ED0834A8D
:101B50009AF9003001920121002200240025CDE9EC
:101B60000289CDE90467CDE9064500910892002B72
:101B7000CCD07B4B0022CDE90623D3E72046294673
:101B800000F0AAFF834600285ED0002200232046F2
:101B9000294601F0D1FE002890D04046494600F089
:101BA0009BFF00288AD03046394600F095FF002878
:101BB00084D09AF90030694A01920421002200245D
:101BC0000025022BCDE90289CDE90467CDE9064560
:101BD0000091089200F08880684600F083FF00289A
:101BE00000F08280089B002B9CD097E73046394656
:101BF00000F072FF00283FF461AF30463946002202
:101C0000002301F0A3FE00283FF458AF534A9AF88E
:101C10000030CDF820B00121CDE90289CDE904677B
:101C20008DE80600002B3CD04E490020022BCDE968
:101C3000060130D101F0DAFE21230360D2E701F082
:101C4000D5FE2123036067E74046494600F044FF84
:101C500000289AD03046394600F03EFF002894D044
:101C600020462946FFF76CFE00BB3C4B9AF800402B
:101C700008900122CDE90289CDE904678DE80C00C6
:101C80007CB10020002102460B4601F017FD022C1A
:101C9000CDE90601CED0684600F024FF0028A1D18E
:101CA000C8E700220023CDE90623F4E72B4A9AF97E
:101CB0000030CDF820B003218DE80600CDE902897F
:101CC000CDE9046740464946002293B9264D4FF0BE
:101CD00060440023CDE9064501F038FE38BB9AF98F
:101CE0000030022B7FF478AF01F080FE22230360E6
:101CF00078E71E4D00240023CDE9064501F026FEBD
:101D00000028ECD000221A4B3046394601F0ACFBDB
:101D100004460D4600F0EEFE22462B4601F00CFE76
:101D20000028DCD10F4B0022CDE90623D7E70022A3
:101D30000F4B3046394601F097FB04460D4600F044
:101D4000D9FE22462B4601F0F7FD0028C7D1094BEA
:101D50004FF06042CDE90623C1E700BFEC3D000033
:101D60000000F03F0000F0FFFFFFEF470000F07FB2
:101D70000000E03FFFFFEFC7200000200000000050
:101D8000B1F5801F2DE9F84304460D460B461ADADB
:101D9000024621F00046324359D000295FDB002281
:101DA0003B4B01F061FB0B460D463A498B42044622
:101DB0006FF035020CDD2046294622462B4601F005
:101DC000A1F9BDE8F88333498B424FF00002F2DC01
:101DD0001815A0F2FF3010444FEAD0794844C3F3FD
:101DE000130801F0DBFAC9F57F73033348EA0355A2
:101DF00006460F462046294600F08EFF1EA3D3E973
:101E00000023804689463046394601F02DFB1CA34D
:101E1000D3E9002304460D463046394601F024FB41
:101E200019A3D3E9002306460F464046494601F070
:101E30001BFB02460B463046394601F063F9024669
:101E40000B462046294601F05DF9BDE8F8830022E3
:101E500000230020104901F031FCBDE8F883024660
:101E60000B4601F04DF90022002301F027FCBDE8EC
:101E7000F88300BFAFF3008000609F501344D33F4E
:101E8000362BF111F3FE593D0EE526157BCBDB3FDA
:101E900000005043FFFFEF7F000050C3AFF300800E
:101EA0002DE9F04F144623F00047024657EA04009C
:101EB0000E4691B01D469C46214634D06E4B26F00E
:101EC000004A9A459346B14626DC24D09F4223DC43
:101ED000694B9F4200F08F80B9F1000FC0F28F80F4
:101EE0004FF0000879BB644B9F4200F0A580634B24
:101EF0009F4267D0BCF1804F00F0E683604B9C4569
:101F000021D1B9F1000F1EDB1046314611B0BDE8FA
:101F1000F04F00F019BD62B10AF1404000F58010A9
:101F200050EA0B0007D155490346184611B0BDE8E9
:101F3000F08F5745CCDD534811B0BDE8F04F00F0AD
:101F4000D3BD4FF0000810463146CDF808C00092CE
:101F500000F0BEFD009ADDF808C0BBF1000F20D0F4
:101F60004FEAD97909F1FF3958EA09037AD0464B8B
:101F70009F4240F38F8003F104739F4240F3148427
:101F8000424B9A4540F39683BCF1000F40F3968391
:101F900037A1D1E900010B46024601F065FA03467C
:101FA000C3E7BAF1000F04D0344B29F0404E9E45F0
:101FB000D6D1BCF1000FC0F2BB83B9F1000F08DB32
:101FC0000346B2E7BCF1000FC0F256841346314617
:101FD000ABE70AF1404A0AF5801A58EA0A0340F0D2
:101FE000628402460B4601F08BF80B46024601F074
:101FF00065FB034699E700293FF46EAF8CE7244B5D
:102000009F422CDCA3F154739F427FF769AF3B15CD
:1020100040F21340834240F34F84C3F58663033399
:1020200021FA03F000FA03F38B427FF459AF00F07A
:102030000100C0F1020855E70AF1404303F580139F
:1020400053EA0B0300F03D83104B9A4540F368833D
:10205000BCF1000FC0F232832346294665E74FF0FA
:1020600002083FE7104631463346BCE7AFF3008035
:102070009C7500883CE4377E0000F07F0000F03F54
:102080000000E03FE83D00000000E041FFFFEF3FBF
:10209000FFFF3F43BAF5801F4FF0000205DACA4B3D
:1020A00001F0E2F96FF034028A464FEA2A53C74F33
:1020B000CAF3130AA3F2FF334AF07F561344BA451A
:1020C0000E9346F4401640F3D483C14B9A4540F337
:1020D0000B840E9B002701330E93A6F58016BC4699
:1020E000BC4B4FEACC0C6344D3E900233146CDF816
:1020F0003CC08246CDE9062301F002F8B346DDE993
:102100000623CDE9080150463146CDE90AAB00F07F
:10211000F9FF02460B460020AF4901F0CFFA024614
:102120000B46DDE90801CDE90C2301F09DF97310A0
:1021300043F0005303F5002382468B46D919002350
:10214000CDE902AB0293DDE90223002006460F46EB
:102150001046194632463B46CDE904ABCDE90001B5
:1021600001F082F902460B46DDE9080100F0C8FFE4
:10217000DDE9062382468B463046394600F0C0FF33
:1021800002460B46DDE90A0100F0BAFF02460B46A3
:10219000DDE9000101F068F902460B465046594658
:1021A00000F0AEFFDDE90C2301F05EF9DDE9042368
:1021B000CDE906011046194601F056F902460B46D4
:1021C00006460F4601F050F96DA3D3E9002382467D
:1021D0008B463046394601F047F96BA3D3E900231B
:1021E00000F090FF32463B4601F03EF968A3D3E988
:1021F000002300F087FF32463B4601F035F966A325
:10220000D3E9002300F07EFF32463B4601F02CF973
:1022100063A3D3E9002300F075FF32463B4601F08B
:1022200023F961A3D3E9002300F06CFF02460B46BB
:102230005046594601F018F9DDE9042306460F46D9
:10224000DDE9000100F05EFFDDE9062301F00CF995
:1022500032463B4600F056FFDDE9006782468B467A
:1022600032463B463046394601F0FEF800225B4BD1
:10227000CDE9080100F046FF52465B4600F042FF00
:1022800002980F4606463246DDE900013B4601F062
:10229000EBF832463B46CDE90001DDE9060101F0ED
:1022A000E3F80022CDE906014C4B3046394600F0F8
:1022B00027FFDDE9082300F023FF02460B465046C6
:1022C000594600F01DFFDDE9042301F0CDF8024678
:1022D0000B46DDE9060100F015FF82468B465246AB
:1022E0005B46DDE9000100F00DFF029830A3D3E961
:1022F000002306460F4601F0B7F82FA3D3E90023C9
:10230000CDE904013046394601F0AEF8DDE900239D
:10231000CDE906013046394600F0F2FE02460B4692
:102320005046594600F0ECFE25A3D3E9002301F006
:102330009BF802460B46DDE9060100F0E3FEDDF8FE
:102340003CC0274BCDF818C06344D3E9002300F00C
:10235000D9FECDE900010E9801F020F8214BDDF8FF
:1023600018C09C44DCE90023064692469B460F4673
:10237000DDE90023DDE9040136E000BFAFF30080B2
:10238000EF4E454A287ECA3F65DBC9934A86CD3F5A
:1023900001411DA96074D13F4D268F515555D53F40
:1023A000FFAB6FDBB66DDB3F033333333333E33FD8
:1023B000000000E009C7EE3FF5015B14E02F3EBED0
:1023C000FD033ADC09C7EE3F000040438E9803004E
:1023D00079B60B00103E00000000F03F00000840FE
:1023E000003E0000F03D000000F08CFE52465B46CF
:1023F000CDE906AB00F086FE32463B4600F082FE99
:10240000029832463B4682468B4600F079FEDDE973
:10241000062300F075FEDDE9042300F071FE02469C
:102420000B46DDE9000100F06BFECDE9020108F189
:10243000FF3858EA09030CBFD54BD64B0022CDE933
:1024400004230023CDE900450093DDE90067204621
:1024500032463B46294600F053FE52465B4601F0A9
:1024600003F8DDE90223804689462046294600F02C
:10247000FBFF02460B464046494600F043FE5246EB
:1024800004460D46304639465B46CDE9024500F02C
:10249000EBFF06460F463B4620462946324600F0F3
:1024A00031FEBD4B994282468946884640F31381EE
:1024B00001F13F4303F5E003034340F0E581A0A3AE
:1024C000D3E90023DDE9020100F01CFE3246044698
:1024D0000D463B465046494600F012FE02460B466A
:1024E0002046294601F050FA002840F0CD814C46A4
:1024F0002315A3F2FE334FF4801018414044C0F37B
:102500000A51A64CA1F2FF33C0F3130BC1F582614F
:1025100003311C414BF4801B20EA040300224BFAD8
:1025200001FB3046394600F0EBFD8BEAE87B0646BE
:102530000F460BEBD87BDDE9020132463B464FEA02
:102540000B5A00F0DFFD00247FA3D3E900232046CF
:102550000D4600F089FF3246804689463B462046BC
:10256000294600F0CDFD02460B46DDE9020100F0F0
:10257000C7FD77A3D3E9002300F076FF76A3D3E964
:10258000002306460F462046294600F06DFF02460E
:102590000B463046394600F0B5FD06460F4632463A
:1025A0003B464046494600F0ADFD42464B46044698
:1025B0000D4600F0A5FD02460B463046394600F0B8
:1025C0009FFD2246804689462B462046294600F03C
:1025D0004BFF63A3D3E9002306460F4600F044FFF8
:1025E00061A3D3E9002300F08BFD32463B4600F0A7
:1025F0003BFF5FA3D3E9002300F084FD32463B4656
:1026000000F032FF5CA3D3E9002300F079FD3246ED
:102610003B4600F029FF5AA3D3E9002300F072FDE6
:1026200032463B4600F020FF02460B462046294634
:1026300000F066FD06460F4632463B4620462946D8
:1026400000F012FF0022CDE900014FF08043304638
:10265000394600F055FD02460B46DDE9000101F068
:102660002DF8424606460F464B462046294600F0C6
:10267000FBFE42464B4600F045FD02460B46304607
:10268000394600F03DFD22462B4600F039FD02465A
:102690000B4600203F4900F033FD8A44BAF5801F05
:1026A0000246C0F227815346DDE9040100F0DCFE5A
:1026B00003463AE4BCF1000FFFF66AAC002319466A
:1026C00033E40B46334930E433461046314600F0DC
:1026D000CBFE034629E4324B21F000449C4240F3F8
:1026E000FA80304B0B4403430CD132463B4600F09A
:1026F00007FD02460B46DDE9020101F031F9002831
:102700003FF4F6AE20A3D3E90023DDE9040100F095
:10271000ABFE1DA3D3E9002300F0A6FE034604E4AC
:10272000BCF1000FCADA234605F10041FFF7FDBBFB
:1027300002460B460020174900F0C0FF3DE400BFF1
:10274000FE822B654715973C00000000432EE63FB4
:10275000EF39FAFE422EE63F396CA80C615C20BED0
:10276000D0A4BE726937663EF16BD2C541BDBB3E97
:102770002CDE25AF6A56113F93BDBE166CC1663F75
:102780003E5555555555C53F59F3F8C21F6EA50125
:102790000000F0BF0000F03FFFFF8F40FFFF0F0081
:1027A000FFCB904000346F3F634B9A4582DD634B13
:1027B0009A453FF7E9AB0022604B00F0A1FC54A31F
:1027C000D3E9002306460F4600F04EFE52A3D3E99C
:1027D0000023CDE900013046394600F045FE32467F
:1027E000CDE902013B463046394600F03DFE00226D
:1027F00082468B4630463946514B00F035FE024644
:102800000B4647A1D1E9000100F07AFC32463B4675
:1028100000F02AFE02460B4600204A4900F070FCF8
:1028200002460B465046594600F01EFE3EA3D3E931
:10283000002300F019FE02460B46DDE9020100F01C
:102840005FFC06460F4632463B46DDE9000100F0DC
:1028500059FCDDE90023002082468B4600F050FC45
:1028600002460B463046394600F04AFCCDE90201EB
:10287000DDE50027BC4633E4334600202F4900F055
:102880001DFF0346FFF751BB29A3D3E90023DDE970
:10289000040100F0E9FD26A3D3E9002300F0E4FDE4
:1028A0000346FFF742BBB8F1010F03467FF43DAB8F
:1028B00001F10041FFF739BB00297FF442ABC3F5BA
:1028C0008263033347FA03F000FA03F3BB4217D0E5
:1028D0008846FFF70CBB1B4B9C423FF709AEDDE976
:1028E0000023924693462EE64FF480274FF0010CCA
:1028F000FFF7F6BB5A4600F08BF902460B46D3E6CB
:1029000000F00100C0F10208FFF7F1BAAFF3008058
:10291000000000604715F73F44DF5DF80BAE543E02
:10292000555555555555D53FFE822B654715F73FF3
:102930009C7500883CE4377EFEFFEF3F0000F03FCF
:102940000000D03F0000E03F2DE9F8435F4EB6465F
:102950000E4076450C460B46054600F09780002950
:10296000024676DD0F1500F08180A7F2FF37C3F332
:102970001303F80743F4801360D4D10F002601EB52
:1029800043037F105200B64616204FF400110EEBA1
:1029900001049C424FEAD2754FEA420203DC1B1B42
:1029A00004EB010E0E44013805EB43034FEA5101DD
:1029B000EDD1844620254FF000410AE0734521D037
:1029C000D40F013D4FEA510104EB43034FEA4202A9
:1029D00021D09E450CEB0104F0DA002C04EB010C35
:1029E0000ADBF046CEEB0303944288BF03F1FF33CA
:1029F000121B0844C646E3E7BCF1000FF1DB0EF101
:102A00000108EFE7944217D8002C04EB010C47DBD8
:102A100098460023ECE7134315D14008731003F1E7
:102A20007F5303F50013F20703EB075948BF40F04B
:102A300000404946BDE8F8839E46C1E7D10F01EB4F
:102A40004303520099E7411C30D000F001031844C1
:102A5000E3E721F000460643ECD071BB0F46D30AF2
:102A6000153F5205002BFAD0DD0222D400215B0075
:102A7000DC0201F10101FAD5C1F10100C1F120042C
:102A800022FA04F4234307448A406EE702460B46C9
:102A900000F0EAFC2A46234600F034FBBDE8F88348
:102AA000BCF1000FABDAF0460023A1E7013628465F
:102AB000B4E7202401200021E2E702460B4600F0A3
:102AC0001FFB02460B4600F0F9FDB3E70000F07F64
:102AD00021F00041704700BF41F0004101F5801036
:102AE000C00F70470020704700200149704700BFA9
:102AF0000000F87F2DE9F043C1F30A5EAEF2FF3526
:102B0000132D83B002460B460C464FEAD17607469A
:102B10002FDC002D4ADB3C49294101EA0300104328
:102B20002CD049080B4053EA02070CD04FF4802305
:102B3000132D24EA010143FA05F444EA01040CBF11
:102B40004FF000470027314901EBC6062346D6E97E
:102B500000453A462046294600F0D4FACDE9000166
:102B600022462B46DDE9000100F0CAFA03B0BDE8B9
:102B7000F083332D07DDB5F5806F42D0104619463E
:102B800003B0BDE8F083AEF2134E4FF0FF3121FAEF
:102B90000EF10142F2D049080142D4D04FF08043F7
:102BA00020EA010143FA0EF70F43CCE721F0004180
:102BB0000143E3D0C3F3130141EA000C1349CCF104
:102BC000000001EBC601D1E9008940EA0C0C5C0C65
:102BD0004FEA1C3C0CF4002C64044CEA040340460D
:102BE000494600F08FFACDE900014B464246DDE947
:102BF000000100F085FA21F0004444EAC67319464A
:102C0000BEE700F07FFABBE7FFFF0F00203E0000A9
:102C1000F8B5C1F30A5604460D460B46174616BBD7
:102C200021F00043034332D00022374B00F01CFC5C
:102C3000364A974204460D460B4637DBC1F30A5627
:102C4000363E3E4440F2FE72964215DD22462B4649
:102C500029A1D1E9000100F047FA27A3D3E9002315
:102C600000F002FCF8BD40F2FF72964224D03E44D0
:102C700040F2FE729642E9DC002E09DD23F0FF43AC
:102C800023F4E00343EA065520462946F8BDF8BD83
:102C900016F1350F15DA4CF250339F4222462B467F
:102CA0001DDC17A1D1E9000100F01EFA14A3D3E93D
:102CB000002300F0D9FBF8BD02460B4600F022FAD3
:102CC000F8BD23F0FF4323F4E003363643EA06550C
:102CD0002046294600220E4B00F0C6FBF8BD06A197
:102CE000D1E9000100F000FA03A3D3E9002300F0CA
:102CF000BBFBF8BDAFF300809C7500883CE4377ED9
:102D000059F3F8C21F6EA50100005043B03CFFFF0D
:102D10000000903CAFF300802DE9F04FB1F5801F2B
:102D200085B006460F460B465ADA024621F00044AB
:102D3000224300F0F6800029C0F272810022DE4BAF
:102D400000F092FB0B460F46DC498B4206466FF0C3
:102D500035024ADCC3F3130505F5152404F6647443
:102D600004F4801E8EF07F5181F440111B15A3F2F4
:102D7000FF3341EA05079C1830460022D04B394604
:102D800004EB1E5400F0BCF9AB1CC3F31303022B7D
:102D900082468B464FF0000230DC002300F0CCFD71
:102DA000002800F0C780002C00F04381204600F08E
:102DB000F5FAADA3D3E9002306460F4600F054FB15
:102DC000ABA3D3E9002304460D463046394600F054
:102DD0004BFB02460B462046294600F093F90AE0D9
:102DE000B6498B424FF00002B4DD304639463246D8
:102DF0003B4600F087F905B0BDE8F08F4FF0804307
:102E000000F080F902460B465046594600F056FC49
:102E100006460F462046CDE9006700F0BFFA32466D
:102E2000CDE902013B463046394600F01DFB024623
:102E30000B468046894600F017FB8FA3D3E9002399
:102E400006460F4600F010FB8DA3D3E9002300F0E7
:102E500059F932463B4600F007FB8BA3D3E9002328
:102E600000F050F932463B4600F0FEFA88A3D3E961
:102E7000002300F047F942464B4600F0F5FA86A3DE
:102E8000D3E90023804689463046394600F0ECFA03
:102E900083A3D3E9002300F035F932463B4600F026
:102EA000E3FA81A3D3E9002300F02CF932463B4634
:102EB00000F0DAFA0B4602464946404600F022F995
:102EC000A5F5C223C5F5D725A3F27A4351351D4395
:102ED000002D06460F4653DD00227A4B50465946D8
:102EE00000F0C2FA52465B4600F0BEFA80468946C0
:102EF000002C60D132463B4600F004F9DDE90023A6
:102F000000F0B2FA02460B464046494600F0F8F897
:102F100002460B465046594600F0F2F805B0BDE8AF
:102F2000F08F002200230020674900F0C7FB05B0A6
:102F3000BDE8F08F52465B465046594600F094FA81
:102F40005BA3D3E9002306460F465046594600F0DE
:102F50008BFA02460B4600205A4900F0D1F802468F
:102F60000B463046394600F07FFA06460F46002CE5
:102F700062D15046594632463B4600F0C1F83AE726
:102F8000002C00F0A380DDE9028937A3D3E90023F8
:102F90004046494600F068FA32463B4604460D4634
:102FA0005046594600F0ACF8DDE9002300F05CFA29
:102FB00006460F464CE02CA3D3E90023DDE90201CD
:102FC00000F052FA32463B4604460D46404649461A
:102FD00000F098F8DDE9002300F046FA24A3D3E9D5
:102FE000002306460F46DDE9020100F03DFA0246E5
:102FF0000B463046394600F085F802460B464046FF
:10300000494600F07DF852465B4600F079F80246EA
:103010000B462046294600F073F805B0BDE8F08F56
:1030200002460B4600F06CF80022002300F046FB3D
:10303000E1E600200021DEE6204600F0AFF90AA319
:10304000D3E900238046894600F00EFA04460D4677
:1030500007A3D3E900234046494600F005FA02469B
:103060000B4630463946CCE70000E0FE422EE63FF4
:10307000763C7935EF39EA3D44523EDF12F1C23FEA
:10308000DE03CB966446C73F599322942449D23F2E
:10309000935555555555E53F9FC678D0099AC33F7E
:1030A000AF788E1DC571CC3F04FA97999999D93F95
:1030B000555555555555D53F00005043FFFFEF7FFF
:1030C0000000F03F0000E03F000050C302460B4606
:1030D0005046594600F014F8DDE9002300F0C4F929
:1030E00016E700BFAFF3008003F0004321F0004279
:1030F00043EA0201704700BF81F0004102E000BFD7
:1031000083F0004330B54FEA41044FEA430594EAA7
:10311000050F08BF90EA020F1FBF54EA000C55EAE2
:10312000020C7FEA645C7FEA655C00F0E2804FEAB3
:103130005454D4EB5555B8BF6D420CDD2C4480EA95
:10314000020281EA030382EA000083EA010180EAC5
:10315000020281EA0303362D88BF30BD11F0004F13
:103160004FEA01314FF4801C4CEA113102D0404249
:1031700061EB410113F0004F4FEA03334CEA133384
:1031800002D0524263EB430394EA050F00F0A7809C
:10319000A4F10104D5F1200E0DDB02FA0EFC22FA97
:1031A00005F2801841F1000103FA0EF2801843FA8B
:1031B00005F359410EE0A5F120050EF1200E012A7C
:1031C00003FA0EFC28BF4CF0020C43FA05F3C018BA
:1031D00051EBE37101F0004507D54FF0000EDCF133
:1031E000000C7EEB00006EEB0101B1F5801F1BD3DC
:1031F000B1F5001F0CD349085FEA30004FEA3C0CE0
:1032000004F101044FEA445212F5800F80F09A80D5
:10321000BCF1004F08BF5FEA500C50F1000041EBD9
:10322000045141EA050130BD5FEA4C0C404141EBDD
:10323000010111F4801FA4F10104E9D191F0000F04
:1032400004BF01460020B1FA81F308BF2033A3F187
:103250000B03B3F120020CDA0C3208DD02F1140C7E
:10326000C2F10C0201FA0CF021FA02F10CE002F1B9
:103270001402D8BFC2F1200C01FA02F120FA0CFCB2
:10328000DCBF41EA0C019040E41AA2BF01EB0451FB
:10329000294330BD6FEA04041F3C1CDA0C340EDCF9
:1032A00004F11404C4F1200220FA04F001FA02F33C
:1032B00040EA030021FA04F345EA030130BDC4F1FA
:1032C0000C04C4F1200220FA02F001FA04F340EAEF
:1032D0000300294630BD21FA04F0294630BD94F0A0
:1032E000000F83F4801306BF81F480110134013D87
:1032F0004EE77FEA645C18BF7FEA655C29D094EAF8
:10330000050F08BF90EA020F05D054EA000C04BF75
:103310001946104630BD91EA030F1EBF0021002060
:1033200030BD5FEA545C05D14000494128BF41F0FF
:10333000004130BD14F580043CBF01F5801130BD63
:1033400001F0004545F0FE4141F470014FF00000EE
:1033500030BD7FEA645C1ABF194610467FEA655C9F
:103360001CBF0B46024650EA013406BF52EA033541
:1033700091EA030F41F4002130BD00BF90F0000F2F
:1033800004BF0021704730B54FF4806404F132046B
:103390004FF000054FF0000150E700BF90F0000F24
:1033A00004BF0021704730B54FF4806404F132044B
:1033B00010F0004548BF40424FF000013EE700BF1B
:1033C00042004FEAE2014FEA31014FEA02701FBFAB
:1033D00012F07F4393F07F4F81F06051704792F07D
:1033E000000F14BF93F07F4F704730B54FF46074F7
:1033F00001F0004521F0004120E700BF50EA010242
:1034000008BF704730B54FF000050AE050EA0102EE
:1034100008BF704730B511F0004502D5404261EB5E
:1034200041014FF4806404F132045FEA915C3FF49F
:10343000DCAE4FF003025FEADC0C18BF03325FEA38
:10344000DC0C18BF033202EBDC02C2F1200300FAED
:1034500003FC20FA02F001FA03FE40EA0E0021FA12
:1034600002F11444C1E600BF70B54FF0FF0C4CF4FC
:10347000E06C1CEA11541DBF1CEA135594EA0C0FB2
:1034800095EA0C0F00F0DEF82C4481EA030621EAED
:103490004C5123EA4C5350EA013518BF52EA033528
:1034A00041F4801143F4801338D0A0FB02CE4FF0DA
:1034B0000005E1FB02E506F00042E0FB03E54FF00A
:1034C0000006E1FB03569CF0000F18BF4EF0010E02
:1034D000A4F1FF04B6F5007F64F5407404D25FEAFE
:1034E0004E0E6D4146EB060642EAC62141EA5551B1
:1034F0004FEAC52040EA5E504FEACE2EB4F1FD0CF3
:1035000088BFBCF5E06F1ED8BEF1004F08BF5FEA70
:10351000500E50F1000041EB045170BD06F0004622
:1035200046EA010140EA020081EA0301B4EB5C04CF
:10353000C2BFD4EB0C0541EA045170BD41F48011C7
:103540004FF0000E013C00F3AB8014F1360FDEBFEC
:10355000002001F0004170BDC4F10004203C35DAC8
:103560000C341BDC04F11404C4F1200500FA05F34B
:1035700020FA04F001FA05F240EA020001F00042EC
:1035800021F0004110EBD37021FA04F642EB060162
:103590005EEA430E08BF20EAD37070BDC4F10C048C
:1035A000C4F1200500FA04F320FA05F001FA04F250
:1035B00040EA020001F0004110EBD37041F100013C
:1035C0005EEA430E08BF20EAD37070BDC4F1200547
:1035D00000FA05F24EEA020E20FA04F301FA05F2AF
:1035E00043EA020321FA04F001F0004121FA04F257
:1035F00020EA020000EBD3705EEA430E08BF20EA27
:10360000D37070BD94F0000F0FD101F00046400060
:1036100041EB010111F4801F08BF013CF7D041EAE2
:10362000060195F0000F18BF704703F000465200E6
:1036300043EB030313F4801F08BF013DF7D043EAB7
:103640000603704794EA0C0F0CEA135518BF95EA6D
:103650000C0F0CD050EA410618BF52EA4306D1D1F4
:1036600081EA030101F000414FF0000070BD50EA13
:10367000410606BF1046194652EA430619D094EA9D
:103680000C0F02D150EA013613D195EA0C0F05D187
:1036900052EA03361CBF104619460AD181EA0301DB
:1036A00001F0004141F0FE4141F470014FF0000093
:1036B00070BD41F0FE4141F4780170BD70B54FF02E
:1036C000FF0C4CF4E06C1CEA11541DBF1CEA1355AE
:1036D00094EA0C0F95EA0C0F00F0A7F8A4EB050490
:1036E00081EA030E52EA03354FEA013100F0888087
:1036F0004FEA03334FF0805545EA131343EA126350
:103700004FEA022245EA111545EA10654FEA002604
:103710000EF000419D4208BF964244F1FD0404F5BD
:10372000407402D25B084FEA3202B61A65EB030519
:103730005B084FEA32024FF480104FF4002CB6EBD6
:10374000020E75EB030E22BFB61A754640EA0C0056
:103750005B084FEA3202B6EB020E75EB030E22BF96
:10376000B61A754640EA5C005B084FEA3202B6EBD7
:10377000020E75EB030E22BFB61A754640EA9C0096
:103780005B084FEA3202B6EB020E75EB030E22BF66
:10379000B61A754640EADC0055EA060E18D04FEA24
:1037A000051545EA16754FEA06164FEAC30343EAC4
:1037B00052734FEAC2025FEA1C1CC0D111F4801F91
:1037C0000BD141EA00014FF000004FF0004CB6E78A
:1037D00011F4801F04BF01430020B4F1FD0C88BF29
:1037E000BCF5E06F3FF6AFAEB5EB030C04BFB6EB34
:1037F000020C5FEA500C50F1000041EB045170BD27
:103800000EF0004E4EEA113114EB5C04C2BFD4EB53
:103810000C0541EA045170BD41F480114FF0000ED7
:10382000013C90E645EA060E8DE60CEA135594EA53
:103830000C0F08BF95EA0C0F3FF43BAF94EA0C0F56
:103840000AD150EA01347FF434AF95EA0C0F7FF4CB
:1038500025AF104619462CE795EA0C0F06D152EA1F
:1038600003353FF4FDAE1046194622E750EA410603
:1038700018BF52EA43067FF4C5AE50EA41047FF414
:103880000DAF52EA43057FF4EBAE12E74FF0FF3C79
:1038900006E000BF4FF0010C02E000BF4FF0010C4A
:1038A0004DF804CD4FEA410C7FEA6C5C4FEA430CC3
:1038B00018BF7FEA6C5C1BD001B050EA410C0CBF12
:1038C00052EA430C91EA030F02BF90EA020F002074
:1038D000704710F1000F91EA030F58BF994208BFDB
:1038E00090422CBFD8176FEAE37040F00100704798
:1038F0004FEA410C7FEA6C5C02D150EA013C07D1EF
:103900004FEA430C7FEA6C5CD6D152EA033CD3D039
:103910005DF8040B704700BF8446104662468C4633
:103920001946634600E000BF01B5FFF7B7FF002866
:1039300048BF10F1000F01BD4DF808EDFFF7F4FF8F
:103940000CBF012000205DF808FB00BF4DF808ED1A
:10395000FFF7EAFF34BF012000205DF808FB00BF3D
:103960004DF808EDFFF7E0FF94BF012000205DF85F
:1039700008FB00BF4DF808EDFFF7CEFF94BF012014
:1039800000205DF808FB00BF4DF808EDFFF7C4FF0D
:1039900034BF012000205DF808FB00BF4FEA410260
:1039A00012F5001215D211D56FF47873B3EB625291
:1039B00012D94FEAC12343F0004343EA505311F0B8
:1039C000004F23FA02F018BF404270474FF000004A
:1039D000704750EA013005D111F0004008BF6FF088
:1039E000004070474FF00000704700BF014B18685F
:1039F000704700BF500400206E616E00696E660063
:103A00003000000040420F0000201C0080841E0097
:103A100000802500999E36000040380000093D00D6
:103A200000803E0000004B00404B4C0000204E0048
:103A3000808D5B0000C05D000080700000127A0085
:103A400000007D0080969800001BB7000080BB003E
:103A5000C0E8CE00647ADA000024F4000000FA0026
:103A600080A81201002D310100366E0140787D01E1
:103A700040000000000000003E00080000000000C0
:103A8000A00000000200000034540100000000000B
:103A90002B7006000000000028000000000000005D
:103AA00027000100000000002000000000000000CE
:103AB00050000000020000001AAC000000000000EE
:103AC000179409000000000016980500000000008F
:103AD0001400000000000000138008000000000037
:103AE000A00000000800000010000000000000001E
:103AF0002800000002000000400000000400000058
:103B000060000000000000005D000C0000000000EC
:103B100050000000000000004E0002000000000005
:103B200041AC0100000000003C000000000000006B
:103B30003A80090000000000300000000000000092
:103B40002800000000000000270001000000000025
:103B50002360060000000000216008000000000053
:103B60001E000000000000001DC004000000000056
:103B700050000000020000001800000000000000DB
:103B800014000000000000006000000004000000BD
:103B90000024F40030003000005A620291009100CD
:103BA00000879303D200D20000B4C40413011301B0
:103BB00000E1F50554015401000E27079501950118
:103BC00000D0121300389C1C004000401000000080
:103BD000008005401000000000500040110000006F
:103BE000009005401100000000600040120000003D
:103BF00000A005401200000000700040130000000B
:103C000000B0054013000000004002401400000016
:103C100000C0054014000000005002402E000000CB
:103C200000D005402E000000006002402F00000080
:103C300000E005402F00000000700240300000004E
:103C400000F005403000000000D0034046000000B6
:103C5000000006404600000000100640470000003B
:103C60000020064048000000003006407F000000B1
:103C70000040064080000000005006408400000024
:103C8000006006408C00000018000000004000406A
:103C900010000000008005401000000000500040AF
:103CA000110000000090054011000000006000407D
:103CB0001200000000A0054012000000007000404B
:103CC0001300000000B00540130000000040024057
:103CD0001400000000C00540140000000050024025
:103CE0002E00000000D005402E00000000600240C1
:103CF0002F00000000E005402F000000007002408F
:103D00003000000000F005403000000000D003400B
:103D10004300000000000640430000000010064081
:103D2000440000000020064045000000003006402E
:103D300058000000004006405900000000500640B6
:103D40005C000000006006406400000018000000F5
:103D500000400040008005400050004000900540B9
:103D60000060004000A005400070004000B0054029
:103D70000040024000C005400050024000D0054015
:103D80000060024000E005400070024000F0054085
:103D900000D003400000064000100640001006401E
:103DA000002006400020064000300640003006405B
:103DB00000400640004006400050064000500640CB
:103DC000006006400060064000700640007006403B
:103DD00000800640008006400090064000900640AB
:103DE0006C6F67313000000000000000706F7700DA
:103DF00000000000000000000000004003B8E23FA7
:103E0000000000000000000006D0CF43EBFD4C3E58
:103E1000000000000000F03F000000000000F83F3C
:103E2000000000000000304300000000000030C32C
:043E3000430000004B
:103E3400010000000000000000000000000000007D
:103E44002D431CEBE2361A3F0A000000000000007C
:103E54000100000000000000000000001403002026
:103E64007C030020E40300200000000000000000A8
:103E7400000000000000000000000000000000003E
:103E8400000000000000000000000000303E0000C0
:103E9400000000000000000000000000000000001E
:103EA400000000000000000000000000000000000E
:103EB40000000000000000000000000000000000FE
:103EC40000000000000000000000000000000000EE
:103ED40000000000000000000000000000000000DE
:103EE40000000000000000000000000000000000CE
:103EF40000000000000000000000000000000000BE
:103F040001000000000000000E33CDAB34126DE65A
:103F1400ECDE05000B0000000000000000000000C3
:103F2400000000000000000000000000000000008D
:103F3400000000000000000000000000000000007D
:103F4400000000000000000000000000000000006D
:103F5400000000000000000000000000000000005D
:0442840028000020EE
:00000001FF
